{
  "contractName": "IPFSStorage",
  "abi": [
    {
      "anonymous": false,
      "inputs": [
        {
          "indexed": false,
          "internalType": "string",
          "name": "rfid",
          "type": "string"
        },
        {
          "indexed": false,
          "internalType": "string",
          "name": "ipfsHash",
          "type": "string"
        },
        {
          "indexed": false,
          "internalType": "string",
          "name": "name",
          "type": "string"
        },
        {
          "indexed": false,
          "internalType": "uint256",
          "name": "timestamp",
          "type": "uint256"
        }
      ],
      "name": "ImageAdded",
      "type": "event"
    },
    {
      "inputs": [
        {
          "internalType": "string",
          "name": "rfid",
          "type": "string"
        },
        {
          "internalType": "string",
          "name": "ipfsHash",
          "type": "string"
        },
        {
          "internalType": "string",
          "name": "name",
          "type": "string"
        },
        {
          "internalType": "string",
          "name": "description",
          "type": "string"
        }
      ],
      "name": "addImage",
      "outputs": [],
      "stateMutability": "nonpayable",
      "type": "function"
    },
    {
      "inputs": [
        {
          "internalType": "string",
          "name": "rfid",
          "type": "string"
        }
      ],
      "name": "getImages",
      "outputs": [
        {
          "internalType": "string[]",
          "name": "",
          "type": "string[]"
        },
        {
          "internalType": "string[]",
          "name": "",
          "type": "string[]"
        },
        {
          "internalType": "string[]",
          "name": "",
          "type": "string[]"
        },
        {
          "internalType": "uint256[]",
          "name": "",
          "type": "uint256[]"
        },
        {
          "internalType": "address[]",
          "name": "",
          "type": "address[]"
        }
      ],
      "stateMutability": "view",
      "type": "function",
      "constant": true
    },
    {
      "inputs": [
        {
          "internalType": "string",
          "name": "rfid",
          "type": "string"
        }
      ],
      "name": "getImageCount",
      "outputs": [
        {
          "internalType": "uint256",
          "name": "",
          "type": "uint256"
        }
      ],
      "stateMutability": "view",
      "type": "function",
      "constant": true
    },
    {
      "inputs": [
        {
          "internalType": "string",
          "name": "rfid",
          "type": "string"
        },
        {
          "internalType": "uint256",
          "name": "index",
          "type": "uint256"
        }
      ],
      "name": "getImage",
      "outputs": [
        {
          "internalType": "string",
          "name": "",
          "type": "string"
        },
        {
          "internalType": "string",
          "name": "",
          "type": "string"
        },
        {
          "internalType": "string",
          "name": "",
          "type": "string"
        },
        {
          "internalType": "uint256",
          "name": "",
          "type": "uint256"
        },
        {
          "internalType": "address",
          "name": "",
          "type": "address"
        }
      ],
      "stateMutability": "view",
      "type": "function",
      "constant": true
    }
  ],
  "bytecode": "0x608060405234801561001057600080fd5b50610edb806100206000396000f3fe608060405234801561001057600080fd5b506004361061004c5760003560e01c806360118026146100515780636b83dfe41461007e578063f5b960c71461009f578063f6d9e5be146100c3575b600080fd5b61006461005f3660046109c9565b6100d8565b604051610075959493929190610aab565b60405180910390f35b61009161008c3660046109c9565b61053a565b604051908152602001610075565b6100b26100ad366004610b6a565b610561565b604051610075959493929190610baf565b6100d66100d1366004610c0b565b6107fd565b005b6060806060806060600080876040516100f19190610cb8565b908152604051908190036020019020805490915060008167ffffffffffffffff81111561012057610120610926565b60405190808252806020026020018201604052801561015357816020015b606081526020019060019003908161013e5790505b50905060008267ffffffffffffffff81111561017157610171610926565b6040519080825280602002602001820160405280156101a457816020015b606081526020019060019003908161018f5790505b50905060008367ffffffffffffffff8111156101c2576101c2610926565b6040519080825280602002602001820160405280156101f557816020015b60608152602001906001900390816101e05790505b50905060008467ffffffffffffffff81111561021357610213610926565b60405190808252806020026020018201604052801561023c578160200160208202803683370190505b50905060008567ffffffffffffffff81111561025a5761025a610926565b604051908082528060200260200182016040528015610283578160200160208202803683370190505b50905060005b868110156105255760008882815481106102a5576102a5610cd4565b906000526020600020906005020190508060000180546102c490610cea565b80601f01602080910402602001604051908101604052809291908181526020018280546102f090610cea565b801561033d5780601f106103125761010080835404028352916020019161033d565b820191906000526020600020905b81548152906001019060200180831161032057829003601f168201915b505050505087838151811061035457610354610cd4565b602002602001018190525080600101805461036e90610cea565b80601f016020809104026020016040519081016040528092919081815260200182805461039a90610cea565b80156103e75780601f106103bc576101008083540402835291602001916103e7565b820191906000526020600020905b8154815290600101906020018083116103ca57829003601f168201915b50505050508683815181106103fe576103fe610cd4565b602002602001018190525080600201805461041890610cea565b80601f016020809104026020016040519081016040528092919081815260200182805461044490610cea565b80156104915780601f1061046657610100808354040283529160200191610491565b820191906000526020600020905b81548152906001019060200180831161047457829003601f168201915b50505050508583815181106104a8576104a8610cd4565b602002602001018190525080600301548483815181106104ca576104ca610cd4565b6020908102919091010152600481015483516001600160a01b03909116908490849081106104fa576104fa610cd4565b6001600160a01b0390921660209283029190910190910152508061051d81610d24565b915050610289565b50939c929b5090995097509095509350505050565b6000808260405161054b9190610cb8565b9081526040519081900360200190205492915050565b60608060606000806000876040516105799190610cb8565b9081526040519081900360200190205486106105db5760405162461bcd60e51b815260206004820152601960248201527f496d61676520696e646578206f7574206f6620626f756e647300000000000000604482015260640160405180910390fd5b600080886040516105ec9190610cb8565b9081526020016040518091039020878154811061060b5761060b610cd4565b9060005260206000209060050201905080600001816001018260020183600301548460040160009054906101000a90046001600160a01b031684805461065090610cea565b80601f016020809104026020016040519081016040528092919081815260200182805461067c90610cea565b80156106c95780601f1061069e576101008083540402835291602001916106c9565b820191906000526020600020905b8154815290600101906020018083116106ac57829003601f168201915b505050505094508380546106dc90610cea565b80601f016020809104026020016040519081016040528092919081815260200182805461070890610cea565b80156107555780601f1061072a57610100808354040283529160200191610755565b820191906000526020600020905b81548152906001019060200180831161073857829003601f168201915b5050505050935082805461076890610cea565b80601f016020809104026020016040519081016040528092919081815260200182805461079490610cea565b80156107e15780601f106107b6576101008083540402835291602001916107e1565b820191906000526020600020905b8154815290600101906020018083116107c457829003601f168201915b5050505050925095509550955095509550509295509295909350565b6040805160c08101825284815260208101849052808201839052426060820152336080820152600160a0820152905160009061083a908790610cb8565b9081526040516020918190038201902080546001810182556000918252919020825183926005029091019081906108719082610d9a565b50602082015160018201906108869082610d9a565b506040820151600282019061089b9082610d9a565b506060820151600382015560808201516004909101805460a0909301511515600160a01b026001600160a81b03199093166001600160a01b03909216919091179190911790556040517f9dd60bc736ce063215db0570c350cebe5b1fce48476de7954e3c75b6c0a2450d90610917908790879087904290610e5a565b60405180910390a15050505050565b634e487b7160e01b600052604160045260246000fd5b600082601f83011261094d57600080fd5b813567ffffffffffffffff8082111561096857610968610926565b604051601f8301601f19908116603f0116810190828211818310171561099057610990610926565b816040528381528660208588010111156109a957600080fd5b836020870160208301376000602085830101528094505050505092915050565b6000602082840312156109db57600080fd5b813567ffffffffffffffff8111156109f257600080fd5b6109fe8482850161093c565b949350505050565b60005b83811015610a21578181015183820152602001610a09565b50506000910152565b60008151808452610a42816020860160208601610a06565b601f01601f19169290920160200192915050565b600081518084526020808501808196508360051b8101915082860160005b85811015610a9e578284038952610a8c848351610a2a565b98850198935090840190600101610a74565b5091979650505050505050565b60a081526000610abe60a0830188610a56565b602083820381850152610ad18289610a56565b91508382036040850152610ae58288610a56565b8481036060860152865180825282880193509082019060005b81811015610b1a57845183529383019391830191600101610afe565b50508481036080860152855180825290820192508186019060005b81811015610b5a5782516001600160a01b031685529383019391830191600101610b35565b50929a9950505050505050505050565b60008060408385031215610b7d57600080fd5b823567ffffffffffffffff811115610b9457600080fd5b610ba08582860161093c565b95602094909401359450505050565b60a081526000610bc260a0830188610a2a565b8281036020840152610bd48188610a2a565b90508281036040840152610be88187610a2a565b606084019590955250506001600160a01b03919091166080909101529392505050565b60008060008060808587031215610c2157600080fd5b843567ffffffffffffffff80821115610c3957600080fd5b610c458883890161093c565b95506020870135915080821115610c5b57600080fd5b610c678883890161093c565b94506040870135915080821115610c7d57600080fd5b610c898883890161093c565b93506060870135915080821115610c9f57600080fd5b50610cac8782880161093c565b91505092959194509250565b60008251610cca818460208701610a06565b9190910192915050565b634e487b7160e01b600052603260045260246000fd5b600181811c90821680610cfe57607f821691505b602082108103610d1e57634e487b7160e01b600052602260045260246000fd5b50919050565b600060018201610d4457634e487b7160e01b600052601160045260246000fd5b5060010190565b601f821115610d9557600081815260208120601f850160051c81016020861015610d725750805b601f850160051c820191505b81811015610d9157828155600101610d7e565b5050505b505050565b815167ffffffffffffffff811115610db457610db4610926565b610dc881610dc28454610cea565b84610d4b565b602080601f831160018114610dfd5760008415610de55750858301515b600019600386901b1c1916600185901b178555610d91565b600085815260208120601f198616915b82811015610e2c57888601518255948401946001909101908401610e0d565b5085821015610e4a5787850151600019600388901b60f8161c191681555b5050505050600190811b01905550565b608081526000610e6d6080830187610a2a565b8281036020840152610e7f8187610a2a565b90508281036040840152610e938186610a2a565b9150508260608301529594505050505056fea26469706673582212201aa89c20ac2abd2219cadc362063a85e7e9bf64dd04cd878b0dc1dd18c38eeb864736f6c63430008110033",
  "immutableReferences": {},
  "source": "// SPDX-License-Identifier: MIT\r\npragma solidity ^0.8.0;\r\n\r\ncontract IPFSStorage {\r\n    // Struct to store image metadata\r\n    struct Image {\r\n        string ipfsHash;\r\n        string name;\r\n        string description;\r\n        uint timestamp;\r\n        address owner;\r\n        bool exists;\r\n    }\r\n    \r\n    // Mapping from RFID to array of images\r\n    mapping(string => Image[]) private rfidToImages;\r\n    \r\n    // Event emitted when a new image is added\r\n    event ImageAdded(string rfid, string ipfsHash, string name, uint timestamp);\r\n    \r\n    // Add a new image for a product\r\n    function addImage(\r\n        string memory rfid,\r\n        string memory ipfsHash,\r\n        string memory name,\r\n        string memory description\r\n    ) public {\r\n        Image memory image = Image({\r\n            ipfsHash: ipfsHash,\r\n            name: name,\r\n            description: description,\r\n            timestamp: block.timestamp,\r\n            owner: msg.sender,\r\n            exists: true\r\n        });\r\n        \r\n        rfidToImages[rfid].push(image);\r\n        \r\n        emit ImageAdded(rfid, ipfsHash, name, block.timestamp);\r\n    }\r\n    \r\n    // Get all images for a particular RFID\r\n    function getImages(string memory rfid) public view returns (\r\n        string[] memory,  // ipfsHashes\r\n        string[] memory,  // names\r\n        string[] memory,  // descriptions\r\n        uint[] memory,    // timestamps\r\n        address[] memory  // owners\r\n    ) {\r\n        Image[] storage images = rfidToImages[rfid];\r\n        uint length = images.length;\r\n        \r\n        string[] memory hashes = new string[](length);\r\n        string[] memory names = new string[](length);\r\n        string[] memory descriptions = new string[](length);\r\n        uint[] memory timestamps = new uint[](length);\r\n        address[] memory owners = new address[](length);\r\n        \r\n        for (uint i = 0; i < length; i++) {\r\n            Image storage img = images[i];\r\n            hashes[i] = img.ipfsHash;\r\n            names[i] = img.name;\r\n            descriptions[i] = img.description;\r\n            timestamps[i] = img.timestamp;\r\n            owners[i] = img.owner;\r\n        }\r\n        \r\n        return (hashes, names, descriptions, timestamps, owners);\r\n    }\r\n    \r\n    // Get the number of images for a particular RFID\r\n    function getImageCount(string memory rfid) public view returns (uint) {\r\n        return rfidToImages[rfid].length;\r\n    }\r\n    \r\n    // Get a specific image for a particular RFID\r\n    function getImage(string memory rfid, uint index) public view returns (\r\n        string memory,  // ipfsHash\r\n        string memory,  // name\r\n        string memory,  // description\r\n        uint,           // timestamp\r\n        address         // owner\r\n    ) {\r\n        require(index < rfidToImages[rfid].length, \"Image index out of bounds\");\r\n        \r\n        Image storage img = rfidToImages[rfid][index];\r\n        return (\r\n            img.ipfsHash,\r\n            img.name,\r\n            img.description,\r\n            img.timestamp,\r\n            img.owner\r\n        );\r\n    }\r\n} ",
  "sourcePath": "C:\\Users\\Welcome\\Desktop\\major-project\\blockchain\\contracts\\IPFSStorage.sol",
  "compiler": {
    "name": "solc",
    "version": "0.8.17+commit.8df45f5f.Emscripten.clang"
  },
  "schemaVersion": "3.4.16",
  "updatedAt": "2025-04-18T20:05:41.879Z",
  "networkType": "ethereum",
  "devdoc": {
    "kind": "dev",
    "methods": {},
    "version": 1
  },
  "userdoc": {
    "kind": "user",
    "methods": {},
    "version": 1
  }
}