{
  "contractName": "ProductTracker",
  "abi": [
    {
      "anonymous": false,
      "inputs": [
        {
          "indexed": false,
          "internalType": "string",
          "name": "rfid",
          "type": "string"
        },
        {
          "indexed": false,
          "internalType": "string",
          "name": "imageHash",
          "type": "string"
        },
        {
          "indexed": false,
          "internalType": "uint256",
          "name": "freshnessScore",
          "type": "uint256"
        },
        {
          "indexed": false,
          "internalType": "string",
          "name": "location",
          "type": "string"
        },
        {
          "indexed": false,
          "internalType": "uint256",
          "name": "timestamp",
          "type": "uint256"
        }
      ],
      "name": "FinalStageRecorded",
      "type": "event"
    },
    {
      "anonymous": false,
      "inputs": [
        {
          "indexed": false,
          "internalType": "string",
          "name": "rfid",
          "type": "string"
        },
        {
          "indexed": false,
          "internalType": "string",
          "name": "name",
          "type": "string"
        },
        {
          "indexed": false,
          "internalType": "string",
          "name": "productType",
          "type": "string"
        },
        {
          "indexed": false,
          "internalType": "string",
          "name": "origin",
          "type": "string"
        },
        {
          "indexed": false,
          "internalType": "uint256",
          "name": "harvestDate",
          "type": "uint256"
        }
      ],
      "name": "ProductRegistered",
      "type": "event"
    },
    {
      "anonymous": false,
      "inputs": [
        {
          "indexed": false,
          "internalType": "string",
          "name": "rfid",
          "type": "string"
        },
        {
          "indexed": false,
          "internalType": "uint256",
          "name": "stageNumber",
          "type": "uint256"
        },
        {
          "indexed": false,
          "internalType": "string",
          "name": "imageHash",
          "type": "string"
        },
        {
          "indexed": false,
          "internalType": "uint256",
          "name": "freshnessScore",
          "type": "uint256"
        },
        {
          "indexed": false,
          "internalType": "string",
          "name": "location",
          "type": "string"
        },
        {
          "indexed": false,
          "internalType": "uint256",
          "name": "timestamp",
          "type": "uint256"
        }
      ],
      "name": "StageRecorded",
      "type": "event"
    },
    {
      "inputs": [
        {
          "internalType": "string",
          "name": "productId",
          "type": "string"
        },
        {
          "internalType": "string",
          "name": "rfid",
          "type": "string"
        },
        {
          "internalType": "string",
          "name": "name",
          "type": "string"
        },
        {
          "internalType": "string",
          "name": "productType",
          "type": "string"
        },
        {
          "internalType": "string",
          "name": "origin",
          "type": "string"
        },
        {
          "internalType": "uint256",
          "name": "harvestDate",
          "type": "uint256"
        },
        {
          "internalType": "string",
          "name": "imageHash",
          "type": "string"
        },
        {
          "internalType": "uint256",
          "name": "freshnessScore",
          "type": "uint256"
        },
        {
          "internalType": "string",
          "name": "location",
          "type": "string"
        },
        {
          "internalType": "string",
          "name": "handler",
          "type": "string"
        },
        {
          "internalType": "string",
          "name": "description",
          "type": "string"
        }
      ],
      "name": "registerProduct",
      "outputs": [],
      "stateMutability": "nonpayable",
      "type": "function"
    },
    {
      "inputs": [
        {
          "internalType": "string",
          "name": "rfid",
          "type": "string"
        },
        {
          "internalType": "string",
          "name": "location",
          "type": "string"
        },
        {
          "internalType": "string",
          "name": "handler",
          "type": "string"
        },
        {
          "internalType": "string",
          "name": "description",
          "type": "string"
        }
      ],
      "name": "recordIntermediateStage",
      "outputs": [],
      "stateMutability": "nonpayable",
      "type": "function"
    },
    {
      "inputs": [
        {
          "internalType": "string",
          "name": "rfid",
          "type": "string"
        },
        {
          "internalType": "string",
          "name": "imageHash",
          "type": "string"
        },
        {
          "internalType": "uint256",
          "name": "freshnessScore",
          "type": "uint256"
        },
        {
          "internalType": "string",
          "name": "location",
          "type": "string"
        },
        {
          "internalType": "string",
          "name": "handler",
          "type": "string"
        },
        {
          "internalType": "string",
          "name": "description",
          "type": "string"
        }
      ],
      "name": "recordFinalStage",
      "outputs": [],
      "stateMutability": "nonpayable",
      "type": "function"
    },
    {
      "inputs": [
        {
          "internalType": "string",
          "name": "rfid",
          "type": "string"
        },
        {
          "internalType": "uint256",
          "name": "stageNumber",
          "type": "uint256"
        }
      ],
      "name": "getProductStage",
      "outputs": [
        {
          "internalType": "string",
          "name": "",
          "type": "string"
        },
        {
          "internalType": "string",
          "name": "",
          "type": "string"
        },
        {
          "internalType": "uint256",
          "name": "",
          "type": "uint256"
        },
        {
          "internalType": "uint256",
          "name": "",
          "type": "uint256"
        },
        {
          "internalType": "string",
          "name": "",
          "type": "string"
        },
        {
          "internalType": "string",
          "name": "",
          "type": "string"
        },
        {
          "internalType": "string",
          "name": "",
          "type": "string"
        }
      ],
      "stateMutability": "view",
      "type": "function",
      "constant": true
    },
    {
      "inputs": [
        {
          "internalType": "string",
          "name": "rfid",
          "type": "string"
        }
      ],
      "name": "getProductDetails",
      "outputs": [
        {
          "internalType": "string",
          "name": "",
          "type": "string"
        },
        {
          "internalType": "string",
          "name": "",
          "type": "string"
        },
        {
          "internalType": "string",
          "name": "",
          "type": "string"
        },
        {
          "internalType": "uint256",
          "name": "",
          "type": "uint256"
        },
        {
          "internalType": "uint256",
          "name": "",
          "type": "uint256"
        }
      ],
      "stateMutability": "view",
      "type": "function",
      "constant": true
    },
    {
      "inputs": [
        {
          "internalType": "string",
          "name": "productId",
          "type": "string"
        }
      ],
      "name": "getProductRfids",
      "outputs": [
        {
          "internalType": "string[]",
          "name": "",
          "type": "string[]"
        }
      ],
      "stateMutability": "view",
      "type": "function",
      "constant": true
    },
    {
      "inputs": [],
      "name": "getAllProductIds",
      "outputs": [
        {
          "internalType": "string[]",
          "name": "",
          "type": "string[]"
        }
      ],
      "stateMutability": "view",
      "type": "function",
      "constant": true
    }
  ],
  "bytecode": "0x608060405234801561001057600080fd5b506116ec806100206000396000f3fe608060405234801561001057600080fd5b506004361061007d5760003560e01c80635fca28f01161005b5780635fca28f0146100e45780636037883c146100f7578063663c01af1461011d578063ae44f5ce1461012557600080fd5b8063198c59b01461008257806322a97b2e146100af5780633c40492a146100c4575b600080fd5b610095610090366004610e9e565b610138565b6040516100a6959493929190610f2b565b60405180910390f35b6100c26100bd366004610f79565b61037a565b005b6100d76100d2366004610e9e565b6104b7565b6040516100a69190611026565b6100c26100f2366004611088565b6105ae565b61010a610105366004611162565b6106dc565b6040516100a697969594939291906111a7565b6100d7610aba565b6100c2610133366004611222565b610b93565b606080606060008060008660405161015091906113a7565b9081526040519081900360200190206005015460ff1661018b5760405162461bcd60e51b8152600401610182906113c3565b60405180910390fd5b6000808760405161019c91906113a7565b90815260200160405180910390209050806000018160010182600201836004015484600701548480546101ce906113f8565b80601f01602080910402602001604051908101604052809291908181526020018280546101fa906113f8565b80156102475780601f1061021c57610100808354040283529160200191610247565b820191906000526020600020905b81548152906001019060200180831161022a57829003601f168201915b5050505050945083805461025a906113f8565b80601f0160208091040260200160405190810160405280929190818152602001828054610286906113f8565b80156102d35780601f106102a8576101008083540402835291602001916102d3565b820191906000526020600020905b8154815290600101906020018083116102b657829003601f168201915b505050505093508280546102e6906113f8565b80601f0160208091040260200160405190810160405280929190818152602001828054610312906113f8565b801561035f5780601f106103345761010080835404028352916020019161035f565b820191906000526020600020905b81548152906001019060200180831161034257829003601f168201915b50505050509250955095509550955095505091939590929450565b60008460405161038a91906113a7565b9081526040519081900360200190206005015460ff166103bc5760405162461bcd60e51b8152600401610182906113c3565b600080856040516103cd91906113a7565b90815260405190819003602001902060078101805491925060019060006103f48385611432565b9091555050600081815260068301602052604090208061041488826114a8565b50604080516020810190915260008152600182019061043390826114a8565b50600060028201554260038201556004810161044f87826114a8565b506005810161045e86826114a8565b506006810161046d85826114a8565b507f402489720837b1f4927f20719ec091af926ba0bb6a0dd3bf018423a88ce4c1708783600089426040516104a6959493929190611568565b60405180910390a150505050505050565b60606001826040516104c991906113a7565b9081526020016040518091039020805480602002602001604051908101604052809291908181526020016000905b828210156105a3578382906000526020600020018054610516906113f8565b80601f0160208091040260200160405190810160405280929190818152602001828054610542906113f8565b801561058f5780601f106105645761010080835404028352916020019161058f565b820191906000526020600020905b81548152906001019060200180831161057257829003601f168201915b5050505050815260200190600101906104f7565b505050509050919050565b6000866040516105be91906113a7565b9081526040519081900360200190206005015460ff166105f05760405162461bcd60e51b8152600401610182906113c3565b6000808760405161060191906113a7565b90815260405190819003602001902060078101805491925060019060006106288385611432565b909155505060008181526006830160205260409020806106488a826114a8565b506001810161065789826114a8565b50600281018790554260038201556004810161067387826114a8565b506005810161068286826114a8565b506006810161069185826114a8565b507fe3c2f492a7ad9b1960ef1f5a0b1e7bf0c73e3744b0a8b6c84a0aef2b229b315389898989426040516106c99594939291906115be565b60405180910390a1505050505050505050565b60608060008060608060606000896040516106f791906113a7565b9081526040519081900360200190206005015460ff166107295760405162461bcd60e51b8152600401610182906113c3565b60008960405161073991906113a7565b90815260200160405180910390206007015488106107905760405162461bcd60e51b815260206004820152601460248201527314dd1859d948191bd95cc81b9bdd08195e1a5cdd60621b6044820152606401610182565b6000808a6040516107a191906113a7565b908152602001604051809103902060060160008a815260200190815260200160002090508060000181600101826002015483600301548460040185600501866006018680546107ef906113f8565b80601f016020809104026020016040519081016040528092919081815260200182805461081b906113f8565b80156108685780601f1061083d57610100808354040283529160200191610868565b820191906000526020600020905b81548152906001019060200180831161084b57829003601f168201915b5050505050965085805461087b906113f8565b80601f01602080910402602001604051908101604052809291908181526020018280546108a7906113f8565b80156108f45780601f106108c9576101008083540402835291602001916108f4565b820191906000526020600020905b8154815290600101906020018083116108d757829003601f168201915b50505050509550828054610907906113f8565b80601f0160208091040260200160405190810160405280929190818152602001828054610933906113f8565b80156109805780601f1061095557610100808354040283529160200191610980565b820191906000526020600020905b81548152906001019060200180831161096357829003601f168201915b50505050509250818054610993906113f8565b80601f01602080910402602001604051908101604052809291908181526020018280546109bf906113f8565b8015610a0c5780601f106109e157610100808354040283529160200191610a0c565b820191906000526020600020905b8154815290600101906020018083116109ef57829003601f168201915b50505050509150808054610a1f906113f8565b80601f0160208091040260200160405190810160405280929190818152602001828054610a4b906113f8565b8015610a985780601f10610a6d57610100808354040283529160200191610a98565b820191906000526020600020905b815481529060010190602001808311610a7b57829003601f168201915b5050505050905097509750975097509750975097505092959891949750929550565b60606002805480602002602001604051908101604052809291908181526020016000905b82821015610b8a578382906000526020600020018054610afd906113f8565b80601f0160208091040260200160405190810160405280929190818152602001828054610b29906113f8565b8015610b765780601f10610b4b57610100808354040283529160200191610b76565b820191906000526020600020905b815481529060010190602001808311610b5957829003601f168201915b505050505081526020019060010190610ade565b50505050905090565b60008a604051610ba391906113a7565b9081526040519081900360200190206005015460ff1615610c145760405162461bcd60e51b815260206004820152602560248201527f50726f6475637420776974682074686973205246494420616c72656164792065604482015264786973747360d81b6064820152608401610182565b6000808b604051610c2591906113a7565b908152604051908190036020019020905080610c418b826114a8565b5060018101610c508a826114a8565b5060028101610c5f89826114a8565b5060038101610c6e8c826114a8565b506004810187905560058101805460ff1916600190811790915560078201556000808052600682016020526040902080610ca88d826114a8565b5060018101610cb788826114a8565b506002810186905542600382015560048101610cd386826114a8565b5060058101610ce285826114a8565b5060068101610cf184826114a8565b5060018d604051610d0291906113a7565b908152604051602091819003820190208054600181018255600091825291902001610d2d8d826114a8565b50600280546001810182556000919091527f405787fa12a823e0f2b7631cc41b3ba8828b3321ca811111fa75cd3aa3bb5ace01610d6a8e826114a8565b507f7277384aaa0f23600447845cc7b5eab2ee4c6e23a765a0b96cb5fb50ad23fcfc8c8c8c8c8c604051610da2959493929190611610565b60405180910390a17f402489720837b1f4927f20719ec091af926ba0bb6a0dd3bf018423a88ce4c1708c600089898942604051610de49695949392919061165d565b60405180910390a150505050505050505050505050565b634e487b7160e01b600052604160045260246000fd5b600082601f830112610e2257600080fd5b813567ffffffffffffffff80821115610e3d57610e3d610dfb565b604051601f8301601f19908116603f01168101908282118183101715610e6557610e65610dfb565b81604052838152866020858801011115610e7e57600080fd5b836020870160208301376000602085830101528094505050505092915050565b600060208284031215610eb057600080fd5b813567ffffffffffffffff811115610ec757600080fd5b610ed384828501610e11565b949350505050565b60005b83811015610ef6578181015183820152602001610ede565b50506000910152565b60008151808452610f17816020860160208601610edb565b601f01601f19169290920160200192915050565b60a081526000610f3e60a0830188610eff565b8281036020840152610f508188610eff565b90508281036040840152610f648187610eff565b60608401959095525050608001529392505050565b60008060008060808587031215610f8f57600080fd5b843567ffffffffffffffff80821115610fa757600080fd5b610fb388838901610e11565b95506020870135915080821115610fc957600080fd5b610fd588838901610e11565b94506040870135915080821115610feb57600080fd5b610ff788838901610e11565b9350606087013591508082111561100d57600080fd5b5061101a87828801610e11565b91505092959194509250565b6000602080830181845280855180835260408601915060408160051b870101925083870160005b8281101561107b57603f19888603018452611069858351610eff565b9450928501929085019060010161104d565b5092979650505050505050565b60008060008060008060c087890312156110a157600080fd5b863567ffffffffffffffff808211156110b957600080fd5b6110c58a838b01610e11565b975060208901359150808211156110db57600080fd5b6110e78a838b01610e11565b965060408901359550606089013591508082111561110457600080fd5b6111108a838b01610e11565b9450608089013591508082111561112657600080fd5b6111328a838b01610e11565b935060a089013591508082111561114857600080fd5b5061115589828a01610e11565b9150509295509295509295565b6000806040838503121561117557600080fd5b823567ffffffffffffffff81111561118c57600080fd5b61119885828601610e11565b95602094909401359450505050565b60e0815260006111ba60e083018a610eff565b82810360208401526111cc818a610eff565b905087604084015286606084015282810360808401526111ec8187610eff565b905082810360a08401526112008186610eff565b905082810360c08401526112148185610eff565b9a9950505050505050505050565b60008060008060008060008060008060006101608c8e03121561124457600080fd5b67ffffffffffffffff808d35111561125b57600080fd5b6112688e8e358f01610e11565b9b508060208e0135111561127b57600080fd5b61128b8e60208f01358f01610e11565b9a508060408e0135111561129e57600080fd5b6112ae8e60408f01358f01610e11565b99508060608e013511156112c157600080fd5b6112d18e60608f01358f01610e11565b98508060808e013511156112e457600080fd5b6112f48e60808f01358f01610e11565b975060a08d013596508060c08e0135111561130e57600080fd5b61131e8e60c08f01358f01610e11565b955060e08d01359450806101008e0135111561133957600080fd5b61134a8e6101008f01358f01610e11565b9350806101208e0135111561135e57600080fd5b61136f8e6101208f01358f01610e11565b9250806101408e0135111561138357600080fd5b506113958d6101408e01358e01610e11565b90509295989b509295989b9093969950565b600082516113b9818460208701610edb565b9190910192915050565b6020808252818101527f50726f64756374207769746820746869732052464944206e6f7420666f756e64604082015260600190565b600181811c9082168061140c57607f821691505b60208210810361142c57634e487b7160e01b600052602260045260246000fd5b50919050565b8082018082111561145357634e487b7160e01b600052601160045260246000fd5b92915050565b601f8211156114a357600081815260208120601f850160051c810160208610156114805750805b601f850160051c820191505b8181101561149f5782815560010161148c565b5050505b505050565b815167ffffffffffffffff8111156114c2576114c2610dfb565b6114d6816114d084546113f8565b84611459565b602080601f83116001811461150b57600084156114f35750858301515b600019600386901b1c1916600185901b17855561149f565b600085815260208120601f198616915b8281101561153a5788860151825594840194600190910190840161151b565b50858210156115585787850151600019600388901b60f8161c191681555b5050505050600190811b01905550565b60c08152600061157b60c0830188610eff565b86602084015282810380604085015260008252866060850152602081016080850152506115ab6020820186610eff565b9150508260a08301529695505050505050565b60a0815260006115d160a0830188610eff565b82810360208401526115e38188610eff565b905085604084015282810360608401526115fd8186610eff565b9150508260808301529695505050505050565b60a08152600061162360a0830188610eff565b82810360208401526116358188610eff565b905082810360408401526116498187610eff565b905082810360608401526115fd8186610eff565b60c08152600061167060c0830189610eff565b87602084015282810360408401526116888188610eff565b905085606084015282810360808401526116a28186610eff565b9150508260a083015297965050505050505056fea264697066735822122043462dc5f7a95bddb08433548c939b95f17c51106aca6d6086614b30e379caf664736f6c63430008110033",
  "immutableReferences": {},
  "source": "// SPDX-License-Identifier: MIT\r\npragma solidity ^0.8.0;\r\n\r\ncontract ProductTracker {\r\n    struct ProductStage {\r\n        string rfid;\r\n        string imageHash;  // IPFS hash for the image\r\n        uint freshnessScore;\r\n        uint timestamp;\r\n        string location;\r\n        string handler;\r\n        string description;\r\n    }\r\n\r\n    struct Product {\r\n        string name;\r\n        string productType;\r\n        string origin;\r\n        string initialRfid;\r\n        uint harvestDate;\r\n        bool exists;\r\n        mapping(uint => ProductStage) stages;\r\n        uint stageCount;\r\n    }\r\n\r\n    // Maps RFID to product\r\n    mapping(string => Product) private products;\r\n    // Maps product ID to array of RFIDs\r\n    mapping(string => string[]) private productRfids;\r\n    // Store the list of product IDs\r\n    string[] private productIds;\r\n\r\n    event ProductRegistered(string rfid, string name, string productType, string origin, uint harvestDate);\r\n    event StageRecorded(string rfid, uint stageNumber, string imageHash, uint freshnessScore, string location, uint timestamp);\r\n    event FinalStageRecorded(string rfid, string imageHash, uint freshnessScore, string location, uint timestamp);\r\n\r\n    // Register a new product with initial stage data\r\n    function registerProduct(\r\n        string memory productId,\r\n        string memory rfid,\r\n        string memory name,\r\n        string memory productType,\r\n        string memory origin,\r\n        uint harvestDate,\r\n        string memory imageHash,\r\n        uint freshnessScore,\r\n        string memory location,\r\n        string memory handler,\r\n        string memory description\r\n    ) public {\r\n        require(!products[rfid].exists, \"Product with this RFID already exists\");\r\n        \r\n        Product storage product = products[rfid];\r\n        product.name = name;\r\n        product.productType = productType;\r\n        product.origin = origin;\r\n        product.initialRfid = rfid;\r\n        product.harvestDate = harvestDate;\r\n        product.exists = true;\r\n        product.stageCount = 1;\r\n        \r\n        // Record initial stage data\r\n        ProductStage storage stage = product.stages[0];\r\n        stage.rfid = rfid;\r\n        stage.imageHash = imageHash;\r\n        stage.freshnessScore = freshnessScore;\r\n        stage.timestamp = block.timestamp;\r\n        stage.location = location;\r\n        stage.handler = handler;\r\n        stage.description = description;\r\n        \r\n        // Store the product ID mapping\r\n        productRfids[productId].push(rfid);\r\n        productIds.push(productId);\r\n        \r\n        emit ProductRegistered(rfid, name, productType, origin, harvestDate);\r\n        emit StageRecorded(rfid, 0, imageHash, freshnessScore, location, block.timestamp);\r\n    }\r\n    \r\n    // Record an intermediate stage with RFID data\r\n    function recordIntermediateStage(\r\n        string memory rfid,\r\n        string memory location,\r\n        string memory handler,\r\n        string memory description\r\n    ) public {\r\n        require(products[rfid].exists, \"Product with this RFID not found\");\r\n        \r\n        Product storage product = products[rfid];\r\n        uint stageNumber = product.stageCount;\r\n        product.stageCount += 1;\r\n        \r\n        ProductStage storage stage = product.stages[stageNumber];\r\n        stage.rfid = rfid;\r\n        stage.imageHash = \"\"; // No image for intermediate stages\r\n        stage.freshnessScore = 0; // No freshness score for intermediate stages\r\n        stage.timestamp = block.timestamp;\r\n        stage.location = location;\r\n        stage.handler = handler;\r\n        stage.description = description;\r\n        \r\n        emit StageRecorded(rfid, stageNumber, \"\", 0, location, block.timestamp);\r\n    }\r\n    \r\n    // Record the final stage with image and freshness data\r\n    function recordFinalStage(\r\n        string memory rfid,\r\n        string memory imageHash,\r\n        uint freshnessScore,\r\n        string memory location,\r\n        string memory handler,\r\n        string memory description\r\n    ) public {\r\n        require(products[rfid].exists, \"Product with this RFID not found\");\r\n        \r\n        Product storage product = products[rfid];\r\n        uint stageNumber = product.stageCount;\r\n        product.stageCount += 1;\r\n        \r\n        ProductStage storage stage = product.stages[stageNumber];\r\n        stage.rfid = rfid;\r\n        stage.imageHash = imageHash;\r\n        stage.freshnessScore = freshnessScore;\r\n        stage.timestamp = block.timestamp;\r\n        stage.location = location;\r\n        stage.handler = handler;\r\n        stage.description = description;\r\n        \r\n        emit FinalStageRecorded(rfid, imageHash, freshnessScore, location, block.timestamp);\r\n    }\r\n    \r\n    // Get product stage details\r\n    function getProductStage(string memory rfid, uint stageNumber) public view returns (\r\n        string memory,  // rfid\r\n        string memory,  // imageHash\r\n        uint,          // freshnessScore\r\n        uint,          // timestamp\r\n        string memory,  // location\r\n        string memory,  // handler\r\n        string memory   // description\r\n    ) {\r\n        require(products[rfid].exists, \"Product with this RFID not found\");\r\n        require(stageNumber < products[rfid].stageCount, \"Stage does not exist\");\r\n        \r\n        ProductStage storage stage = products[rfid].stages[stageNumber];\r\n        return (\r\n            stage.rfid,\r\n            stage.imageHash,\r\n            stage.freshnessScore,\r\n            stage.timestamp,\r\n            stage.location,\r\n            stage.handler,\r\n            stage.description\r\n        );\r\n    }\r\n    \r\n    // Get product details\r\n    function getProductDetails(string memory rfid) public view returns (\r\n        string memory,  // name\r\n        string memory,  // productType\r\n        string memory,  // origin\r\n        uint,          // harvestDate\r\n        uint           // stageCount\r\n    ) {\r\n        require(products[rfid].exists, \"Product with this RFID not found\");\r\n        \r\n        Product storage product = products[rfid];\r\n        return (\r\n            product.name,\r\n            product.productType,\r\n            product.origin,\r\n            product.harvestDate,\r\n            product.stageCount\r\n        );\r\n    }\r\n    \r\n    // Get all RFIDs for a product ID\r\n    function getProductRfids(string memory productId) public view returns (string[] memory) {\r\n        return productRfids[productId];\r\n    }\r\n    \r\n    // Get all product IDs\r\n    function getAllProductIds() public view returns (string[] memory) {\r\n        return productIds;\r\n    }\r\n} ",
  "sourcePath": "C:\\Users\\Welcome\\Desktop\\major-project\\blockchain\\contracts\\ProductTracker.sol",
  "compiler": {
    "name": "solc",
    "version": "0.8.17+commit.8df45f5f.Emscripten.clang"
  },
  "schemaVersion": "3.4.16",
  "updatedAt": "2025-04-18T20:05:41.873Z",
  "networkType": "ethereum",
  "devdoc": {
    "kind": "dev",
    "methods": {},
    "version": 1
  },
  "userdoc": {
    "kind": "user",
    "methods": {},
    "version": 1
  }
}